{
  "contractName": "VendingMachine",
  "abi": [
    {
      "inputs": [],
      "stateMutability": "nonpayable",
      "type": "constructor"
    },
    {
      "inputs": [
        {
          "internalType": "address",
          "name": "",
          "type": "address"
        }
      ],
      "name": "donutBalances",
      "outputs": [
        {
          "internalType": "uint256",
          "name": "",
          "type": "uint256"
        }
      ],
      "stateMutability": "view",
      "type": "function"
    },
    {
      "inputs": [],
      "name": "owner",
      "outputs": [
        {
          "internalType": "address",
          "name": "",
          "type": "address"
        }
      ],
      "stateMutability": "view",
      "type": "function"
    },
    {
      "inputs": [],
      "name": "getVendingMachineBalance",
      "outputs": [
        {
          "internalType": "uint256",
          "name": "",
          "type": "uint256"
        }
      ],
      "stateMutability": "view",
      "type": "function"
    },
    {
      "inputs": [
        {
          "internalType": "uint256",
          "name": "amount",
          "type": "uint256"
        }
      ],
      "name": "restock",
      "outputs": [],
      "stateMutability": "nonpayable",
      "type": "function"
    },
    {
      "inputs": [
        {
          "internalType": "uint256",
          "name": "amount",
          "type": "uint256"
        }
      ],
      "name": "purchase",
      "outputs": [],
      "stateMutability": "payable",
      "type": "function"
    }
  ],
  "bytecode": "0x608060405234801561001057600080fd5b50336000806101000a81548173ffffffffffffffffffffffffffffffffffffffff021916908373ffffffffffffffffffffffffffffffffffffffff1602179055506064600160003073ffffffffffffffffffffffffffffffffffffffff1673ffffffffffffffffffffffffffffffffffffffff16815260200190815260200160002081905550610848806100a56000396000f3fe60806040526004361061004a5760003560e01c80638da5cb5b1461004f5780639a020d8a1461007a578063c21a702a146100b7578063e7644d34146100e0578063efef39a11461010b575b600080fd5b34801561005b57600080fd5b50610064610127565b6040516100719190610458565b60405180910390f35b34801561008657600080fd5b506100a1600480360381019061009c91906104a4565b61014b565b6040516100ae91906104ea565b60405180910390f35b3480156100c357600080fd5b506100de60048036038101906100d99190610531565b610163565b005b3480156100ec57600080fd5b506100f561024a565b60405161010291906104ea565b60405180910390f35b61012560048036038101906101209190610531565b610291565b005b60008054906101000a900473ffffffffffffffffffffffffffffffffffffffff1681565b60016020528060005260406000206000915090505481565b60008054906101000a900473ffffffffffffffffffffffffffffffffffffffff1673ffffffffffffffffffffffffffffffffffffffff163373ffffffffffffffffffffffffffffffffffffffff16146101f1576040517f08c379a00000000000000000000000000000000000000000000000000000000081526004016101e8906105bb565b60405180910390fd5b80600160003073ffffffffffffffffffffffffffffffffffffffff1673ffffffffffffffffffffffffffffffffffffffff1681526020019081526020016000206000828254610240919061060a565b9250508190555050565b6000600160003073ffffffffffffffffffffffffffffffffffffffff1673ffffffffffffffffffffffffffffffffffffffff16815260200190815260200160002054905090565b66038d7ea4c68000816102a49190610660565b3410156102e6576040517f08c379a00000000000000000000000000000000000000000000000000000000081526004016102dd9061072c565b60405180910390fd5b80600160003073ffffffffffffffffffffffffffffffffffffffff1673ffffffffffffffffffffffffffffffffffffffff168152602001908152602001600020541015610368576040517f08c379a000000000000000000000000000000000000000000000000000000000815260040161035f906107be565b60405180910390fd5b80600160003073ffffffffffffffffffffffffffffffffffffffff1673ffffffffffffffffffffffffffffffffffffffff16815260200190815260200160002060008282546103b791906107de565b9250508190555080600160003373ffffffffffffffffffffffffffffffffffffffff1673ffffffffffffffffffffffffffffffffffffffff168152602001908152602001600020600082825461040d919061060a565b9250508190555050565b600073ffffffffffffffffffffffffffffffffffffffff82169050919050565b600061044282610417565b9050919050565b61045281610437565b82525050565b600060208201905061046d6000830184610449565b92915050565b600080fd5b61048181610437565b811461048c57600080fd5b50565b60008135905061049e81610478565b92915050565b6000602082840312156104ba576104b9610473565b5b60006104c88482850161048f565b91505092915050565b6000819050919050565b6104e4816104d1565b82525050565b60006020820190506104ff60008301846104db565b92915050565b61050e816104d1565b811461051957600080fd5b50565b60008135905061052b81610505565b92915050565b60006020828403121561054757610546610473565b5b60006105558482850161051c565b91505092915050565b600082825260208201905092915050565b7f4f6e6c7920746865206f776e65722063616e20726573746f636b2e0000000000600082015250565b60006105a5601b8361055e565b91506105b08261056f565b602082019050919050565b600060208201905081810360008301526105d481610598565b9050919050565b7f4e487b7100000000000000000000000000000000000000000000000000000000600052601160045260246000fd5b6000610615826104d1565b9150610620836104d1565b9250827fffffffffffffffffffffffffffffffffffffffffffffffffffffffffffffffff03821115610655576106546105db565b5b828201905092915050565b600061066b826104d1565b9150610676836104d1565b9250817fffffffffffffffffffffffffffffffffffffffffffffffffffffffffffffffff04831182151516156106af576106ae6105db565b5b828202905092915050565b7f596f75206d75737420706179206174206c6561737420302e303031204554482060008201527f70657220646f6e75740000000000000000000000000000000000000000000000602082015250565b600061071660298361055e565b9150610721826106ba565b604082019050919050565b6000602082019050818103600083015261074581610709565b9050919050565b7f4e6f7420656e6f75676820646f6e75747320696e2073746f636b20746f20636f60008201527f6d706c6574652074686973207075726368617365000000000000000000000000602082015250565b60006107a860348361055e565b91506107b38261074c565b604082019050919050565b600060208201905081810360008301526107d78161079b565b9050919050565b60006107e9826104d1565b91506107f4836104d1565b925082821015610807576108066105db565b5b82820390509291505056fea26469706673582212202e933fddfb512162758095f994490448c3ca88abe44abfb7189d3f0915fbf2ec64736f6c634300080b0033",
  "immutableReferences": {},
  "source": "// SPDX-License-Identifier: MIT\r\npragma solidity ^0.8.11;\r\n\r\ncontract VendingMachine {\r\n\r\n    // state variables\r\n    address public owner;\r\n    mapping (address => uint) public donutBalances;\r\n\r\n    // set the owner as th address that deployed the contract\r\n    // set the initial vending machine balance to 100\r\n    constructor() {\r\n        owner = msg.sender;\r\n        donutBalances[address(this)] = 100;\r\n    }\r\n\r\n    function getVendingMachineBalance() public view returns (uint) {\r\n        return donutBalances[address(this)];\r\n    }\r\n\r\n    // Let the owner restock the vending machine\r\n    function restock(uint amount) public {\r\n        require(msg.sender == owner, \"Only the owner can restock.\");\r\n        donutBalances[address(this)] += amount;\r\n    }\r\n\r\n    // Purchase donuts from the vending machine\r\n    function purchase(uint amount) public payable {\r\n        require(msg.value >= amount * 0.001 ether, \"You must pay at least 0.001 ETH per donut\");\r\n        require(donutBalances[address(this)] >= amount, \"Not enough donuts in stock to complete this purchase\");\r\n        donutBalances[address(this)] -= amount;\r\n        donutBalances[msg.sender] += amount;\r\n    }\r\n}",
  "sourcePath": "C:\\src\\Solidity\\vendingMachineDapp\\vending-machine\\contracts\\VendingMachine.sol",
  "compiler": {
    "name": "solc",
    "version": "0.8.11+commit.d7f03943.Emscripten.clang"
  },
  "schemaVersion": "3.4.4",
  "updatedAt": "2022-03-12T03:25:13.585Z",
  "devdoc": {
    "kind": "dev",
    "methods": {},
    "version": 1
  },
  "userdoc": {
    "kind": "user",
    "methods": {},
    "version": 1
  }
}